{
  "_format": "hh-sol-artifact-1",
  "contractName": "WavePortal",
  "sourceName": "contracts/WavePortal.sol",
  "abi": [
    {
      "inputs": [],
      "stateMutability": "nonpayable",
      "type": "constructor"
    },
    {
      "anonymous": false,
      "inputs": [
        {
          "indexed": true,
          "internalType": "address",
          "name": "from",
          "type": "address"
        },
        {
          "indexed": false,
          "internalType": "uint256",
          "name": "timestamp",
          "type": "uint256"
        },
        {
          "indexed": false,
          "internalType": "string",
          "name": "message",
          "type": "string"
        }
      ],
      "name": "NewWave",
      "type": "event"
    },
    {
      "inputs": [],
      "name": "getAllWaves",
      "outputs": [
        {
          "components": [
            {
              "internalType": "address",
              "name": "waver",
              "type": "address"
            },
            {
              "internalType": "string",
              "name": "message",
              "type": "string"
            },
            {
              "internalType": "uint256",
              "name": "timestamp",
              "type": "uint256"
            }
          ],
          "internalType": "struct WavePortal.Wave[]",
          "name": "",
          "type": "tuple[]"
        }
      ],
      "stateMutability": "view",
      "type": "function"
    },
    {
      "inputs": [],
      "name": "getTotalWaves",
      "outputs": [
        {
          "internalType": "uint256",
          "name": "",
          "type": "uint256"
        }
      ],
      "stateMutability": "view",
      "type": "function"
    },
    {
      "inputs": [],
      "name": "totalWaves",
      "outputs": [
        {
          "internalType": "uint256",
          "name": "",
          "type": "uint256"
        }
      ],
      "stateMutability": "view",
      "type": "function"
    },
    {
      "inputs": [
        {
          "internalType": "string",
          "name": "_message",
          "type": "string"
        }
      ],
      "name": "wave",
      "outputs": [],
      "stateMutability": "nonpayable",
      "type": "function"
    }
  ],
  "bytecode": "0x60806040523480156200001157600080fd5b506200005d6040518060400160405280601281526020017f68656c6c6f2c207765623320776f726c642100000000000000000000000000008152506200006360201b620003df1760201c565b620001f7565b62000103816040516024016200007a919062000170565b6040516020818303038152906040527f41304fac000000000000000000000000000000000000000000000000000000007bffffffffffffffffffffffffffffffffffffffffffffffffffffffff19166020820180517bffffffffffffffffffffffffffffffffffffffffffffffffffffffff83818316178352505050506200010660201b60201c565b50565b60008151905060006a636f6e736f6c652e6c6f679050602083016000808483855afa5050505050565b60006200013c8262000194565b6200014881856200019f565b93506200015a818560208601620001b0565b6200016581620001e6565b840191505092915050565b600060208201905081810360008301526200018c81846200012f565b905092915050565b600081519050919050565b600082825260208201905092915050565b60005b83811015620001d0578082015181840152602081019050620001b3565b83811115620001e0576000848401525b50505050565b6000601f19601f8301169050919050565b610c6d80620002076000396000f3fe608060405234801561001057600080fd5b506004361061004c5760003560e01c8063291bcab314610051578063449d46c01461006f5780639a2cdc081461008b578063bd43a908146100a9575b600080fd5b6100596100c7565b6040516100669190610968565b60405180910390f35b610089600480360381019061008491906106e7565b6100cd565b005b610093610243565b6040516100a09190610968565b60405180910390f35b6100b161028e565b6040516100be91906108af565b60405180910390f35b60005481565b6000808154809291906100df90610b50565b91905055506101246040518060400160405280601081526020017f25732068617320776176656420257321000000000000000000000000000000008152503383610478565b600160405180606001604052803373ffffffffffffffffffffffffffffffffffffffff16815260200183815260200142815250908060018154018082558091505060019003906000526020600020906003020160009091909190915060008201518160000160006101000a81548173ffffffffffffffffffffffffffffffffffffffff021916908373ffffffffffffffffffffffffffffffffffffffff16021790555060208201518160010190805190602001906101e39291906105dc565b506040820151816002015550503373ffffffffffffffffffffffffffffffffffffffff167f5f7e16dc676677766a70e9c5628aa6c54ddb8b6e5188e2ae1e1f17f1ffbea7164283604051610238929190610983565b60405180910390a250565b60006102866040518060400160405280601681526020017f5765206861766520256420746f74616c20776176652100000000000000000000815250600054610517565b600054905090565b60606001805480602002602001604051908101604052809291908181526020016000905b828210156103d657838290600052602060002090600302016040518060600160405290816000820160009054906101000a900473ffffffffffffffffffffffffffffffffffffffff1673ffffffffffffffffffffffffffffffffffffffff1673ffffffffffffffffffffffffffffffffffffffff16815260200160018201805461033b90610aed565b80601f016020809104026020016040519081016040528092919081815260200182805461036790610aed565b80156103b45780601f10610389576101008083540402835291602001916103b4565b820191906000526020600020905b81548152906001019060200180831161039757829003601f168201915b50505050508152602001600282015481525050815260200190600101906102b2565b50505050905090565b610475816040516024016103f391906108d1565b6040516020818303038152906040527f41304fac000000000000000000000000000000000000000000000000000000007bffffffffffffffffffffffffffffffffffffffffffffffffffffffff19166020820180517bffffffffffffffffffffffffffffffffffffffffffffffffffffffff83818316178352505050506105b3565b50565b610512838383604051602401610490939291906108f3565b6040516020818303038152906040527fe0e9ad4f000000000000000000000000000000000000000000000000000000007bffffffffffffffffffffffffffffffffffffffffffffffffffffffff19166020820180517bffffffffffffffffffffffffffffffffffffffffffffffffffffffff83818316178352505050506105b3565b505050565b6105af828260405160240161052d929190610938565b6040516020818303038152906040527f9710a9d0000000000000000000000000000000000000000000000000000000007bffffffffffffffffffffffffffffffffffffffffffffffffffffffff19166020820180517bffffffffffffffffffffffffffffffffffffffffffffffffffffffff83818316178352505050506105b3565b5050565b60008151905060006a636f6e736f6c652e6c6f679050602083016000808483855afa5050505050565b8280546105e890610aed565b90600052602060002090601f01602090048101928261060a5760008555610651565b82601f1061062357805160ff1916838001178555610651565b82800160010185558215610651579182015b82811115610650578251825591602001919060010190610635565b5b50905061065e9190610662565b5090565b5b8082111561067b576000816000905550600101610663565b5090565b600061069261068d846109d8565b6109b3565b9050828152602081018484840111156106aa57600080fd5b6106b5848285610aab565b509392505050565b600082601f8301126106ce57600080fd5b81356106de84826020860161067f565b91505092915050565b6000602082840312156106f957600080fd5b600082013567ffffffffffffffff81111561071357600080fd5b61071f848285016106bd565b91505092915050565b60006107348383610841565b905092915050565b61074581610a6f565b82525050565b61075481610a6f565b82525050565b600061076582610a19565b61076f8185610a3c565b93508360208202850161078185610a09565b8060005b858110156107bd578484038952815161079e8582610728565b94506107a983610a2f565b925060208a01995050600181019050610785565b50829750879550505050505092915050565b60006107da82610a24565b6107e48185610a4d565b93506107f4818560208601610aba565b6107fd81610c26565b840191505092915050565b600061081382610a24565b61081d8185610a5e565b935061082d818560208601610aba565b61083681610c26565b840191505092915050565b6000606083016000830151610859600086018261073c565b506020830151848203602086015261087182826107cf565b91505060408301516108866040860182610891565b508091505092915050565b61089a81610aa1565b82525050565b6108a981610aa1565b82525050565b600060208201905081810360008301526108c9818461075a565b905092915050565b600060208201905081810360008301526108eb8184610808565b905092915050565b6000606082019050818103600083015261090d8186610808565b905061091c602083018561074b565b818103604083015261092e8184610808565b9050949350505050565b600060408201905081810360008301526109528185610808565b905061096160208301846108a0565b9392505050565b600060208201905061097d60008301846108a0565b92915050565b600060408201905061099860008301856108a0565b81810360208301526109aa8184610808565b90509392505050565b60006109bd6109ce565b90506109c98282610b1f565b919050565b6000604051905090565b600067ffffffffffffffff8211156109f3576109f2610bf7565b5b6109fc82610c26565b9050602081019050919050565b6000819050602082019050919050565b600081519050919050565b600081519050919050565b6000602082019050919050565b600082825260208201905092915050565b600082825260208201905092915050565b600082825260208201905092915050565b6000610a7a82610a81565b9050919050565b600073ffffffffffffffffffffffffffffffffffffffff82169050919050565b6000819050919050565b82818337600083830152505050565b60005b83811015610ad8578082015181840152602081019050610abd565b83811115610ae7576000848401525b50505050565b60006002820490506001821680610b0557607f821691505b60208210811415610b1957610b18610bc8565b5b50919050565b610b2882610c26565b810181811067ffffffffffffffff82111715610b4757610b46610bf7565b5b80604052505050565b6000610b5b82610aa1565b91507fffffffffffffffffffffffffffffffffffffffffffffffffffffffffffffffff821415610b8e57610b8d610b99565b5b600182019050919050565b7f4e487b7100000000000000000000000000000000000000000000000000000000600052601160045260246000fd5b7f4e487b7100000000000000000000000000000000000000000000000000000000600052602260045260246000fd5b7f4e487b7100000000000000000000000000000000000000000000000000000000600052604160045260246000fd5b6000601f19601f830116905091905056fea264697066735822122007ad30d272a40d0e6bb19cfdc44017e05515b1cf42b31c1da4e16bada469f04164736f6c63430008040033",
  "linkReferences": {},
  "deployedLinkReferences": {}
}