{
  "_format": "hh-sol-artifact-1",
  "contractName": "WavePortal",
  "sourceName": "contracts/WavePortal.sol",
  "abi": [
    {
      "inputs": [],
      "stateMutability": "payable",
      "type": "constructor"
    },
    {
      "anonymous": false,
      "inputs": [
        {
          "indexed": true,
          "internalType": "address",
          "name": "from",
          "type": "address"
        },
        {
          "indexed": false,
          "internalType": "uint256",
          "name": "timestamp",
          "type": "uint256"
        },
        {
          "indexed": false,
          "internalType": "string",
          "name": "message",
          "type": "string"
        }
      ],
      "name": "NewWave",
      "type": "event"
    },
    {
      "inputs": [],
      "name": "getAllWaves",
      "outputs": [
        {
          "components": [
            {
              "internalType": "address",
              "name": "waver",
              "type": "address"
            },
            {
              "internalType": "string",
              "name": "message",
              "type": "string"
            },
            {
              "internalType": "uint256",
              "name": "timestamp",
              "type": "uint256"
            }
          ],
          "internalType": "struct WavePortal.Wave[]",
          "name": "",
          "type": "tuple[]"
        }
      ],
      "stateMutability": "view",
      "type": "function"
    },
    {
      "inputs": [],
      "name": "getTotalWaves",
      "outputs": [
        {
          "internalType": "uint256",
          "name": "",
          "type": "uint256"
        }
      ],
      "stateMutability": "view",
      "type": "function"
    },
    {
      "inputs": [
        {
          "internalType": "address",
          "name": "",
          "type": "address"
        }
      ],
      "name": "lastWavedAt",
      "outputs": [
        {
          "internalType": "uint256",
          "name": "",
          "type": "uint256"
        }
      ],
      "stateMutability": "view",
      "type": "function"
    },
    {
      "inputs": [],
      "name": "totalWaves",
      "outputs": [
        {
          "internalType": "uint256",
          "name": "",
          "type": "uint256"
        }
      ],
      "stateMutability": "view",
      "type": "function"
    },
    {
      "inputs": [
        {
          "internalType": "string",
          "name": "_message",
          "type": "string"
        }
      ],
      "name": "wave",
      "outputs": [],
      "stateMutability": "nonpayable",
      "type": "function"
    }
  ],
  "bytecode": "0x60806040526200004f6040518060400160405280601281526020017f68656c6c6f2c207765623320776f726c642100000000000000000000000000008152506200007760201b620006b51760201c565b606444426200005f9190620001c4565b6200006b919062000261565b60018190555062000308565b62000117816040516024016200008e919062000184565b6040516020818303038152906040527f41304fac000000000000000000000000000000000000000000000000000000007bffffffffffffffffffffffffffffffffffffffffffffffffffffffff19166020820180517bffffffffffffffffffffffffffffffffffffffffffffffffffffffff83818316178352505050506200011a60201b60201c565b50565b60008151905060006a636f6e736f6c652e6c6f679050602083016000808483855afa5050505050565b60006200015082620001a8565b6200015c8185620001b3565b93506200016e8185602086016200022b565b6200017981620002f7565b840191505092915050565b60006020820190508181036000830152620001a0818462000143565b905092915050565b600081519050919050565b600082825260208201905092915050565b6000620001d18262000221565b9150620001de8362000221565b9250827fffffffffffffffffffffffffffffffffffffffffffffffffffffffffffffffff0382111562000216576200021562000299565b5b828201905092915050565b6000819050919050565b60005b838110156200024b5780820151818401526020810190506200022e565b838111156200025b576000848401525b50505050565b60006200026e8262000221565b91506200027b8362000221565b9250826200028e576200028d620002c8565b5b828206905092915050565b7f4e487b7100000000000000000000000000000000000000000000000000000000600052601160045260246000fd5b7f4e487b7100000000000000000000000000000000000000000000000000000000600052601260045260246000fd5b6000601f19601f8301169050919050565b6112f080620003186000396000f3fe608060405234801561001057600080fd5b50600436106100575760003560e01c8063291bcab31461005c578063449d46c01461007a5780639a2cdc0814610096578063a42a4663146100b4578063bd43a908146100e4575b600080fd5b610064610102565b6040516100719190610e49565b60405180910390f35b610094600480360381019061008f9190610a97565b610108565b005b61009e610501565b6040516100ab9190610e49565b60405180910390f35b6100ce60048036038101906100c99190610a6e565b61054c565b6040516100db9190610e49565b60405180910390f35b6100ec610564565b6040516100f99190610d00565b60405180910390f35b60005481565b42601e600360003373ffffffffffffffffffffffffffffffffffffffff1673ffffffffffffffffffffffffffffffffffffffff168152602001908152602001600020546101559190610f5b565b10610195576040517f08c379a000000000000000000000000000000000000000000000000000000000815260040161018c90610e09565b60405180910390fd5b42600360003373ffffffffffffffffffffffffffffffffffffffff1673ffffffffffffffffffffffffffffffffffffffff168152602001908152602001600020819055506000808154809291906101eb90611092565b91905055506102306040518060400160405280601081526020017f2573206861732077617665642025732100000000000000000000000000000000815250338361074e565b600260405180606001604052803373ffffffffffffffffffffffffffffffffffffffff16815260200183815260200142815250908060018154018082558091505060019003906000526020600020906003020160009091909190915060008201518160000160006101000a81548173ffffffffffffffffffffffffffffffffffffffff021916908373ffffffffffffffffffffffffffffffffffffffff16021790555060208201518160010190805190602001906102ef92919061094e565b506040820151816002015550506064600154424461030d9190610f5b565b6103179190610f5b565b61032191906110db565b6001819055506103686040518060400160405280601681526020017f52616e646f6d20232067656e6572617465643a202564000000000000000000008152506001546107ed565b3373ffffffffffffffffffffffffffffffffffffffff167f5f7e16dc676677766a70e9c5628aa6c54ddb8b6e5188e2ae1e1f17f1ffbea71642836040516103b0929190610e64565b60405180910390a26032600154116104fe576104016040518060400160405280600781526020017f257320776f6e210000000000000000000000000000000000000000000000000081525033610889565b6000655af3107a400090504781111561044f576040517f08c379a000000000000000000000000000000000000000000000000000000000815260040161044690610de9565b60405180910390fd5b60003373ffffffffffffffffffffffffffffffffffffffff168260405161047590610ceb565b60006040518083038185875af1925050503d80600081146104b2576040519150601f19603f3d011682016040523d82523d6000602084013e6104b7565b606091505b50509050806104fb576040517f08c379a00000000000000000000000000000000000000000000000000000000081526004016104f290610e29565b60405180910390fd5b50505b50565b60006105446040518060400160405280601681526020017f5765206861766520256420746f74616c207761766521000000000000000000008152506000546107ed565b600054905090565b60036020528060005260406000206000915090505481565b60606002805480602002602001604051908101604052809291908181526020016000905b828210156106ac57838290600052602060002090600302016040518060600160405290816000820160009054906101000a900473ffffffffffffffffffffffffffffffffffffffff1673ffffffffffffffffffffffffffffffffffffffff1673ffffffffffffffffffffffffffffffffffffffff1681526020016001820180546106119061102f565b80601f016020809104026020016040519081016040528092919081815260200182805461063d9061102f565b801561068a5780601f1061065f5761010080835404028352916020019161068a565b820191906000526020600020905b81548152906001019060200180831161066d57829003601f168201915b5050505050815260200160028201548152505081526020019060010190610588565b50505050905090565b61074b816040516024016106c99190610d22565b6040516020818303038152906040527f41304fac000000000000000000000000000000000000000000000000000000007bffffffffffffffffffffffffffffffffffffffffffffffffffffffff19166020820180517bffffffffffffffffffffffffffffffffffffffffffffffffffffffff8381831617835250505050610925565b50565b6107e883838360405160240161076693929190610d74565b6040516020818303038152906040527fe0e9ad4f000000000000000000000000000000000000000000000000000000007bffffffffffffffffffffffffffffffffffffffffffffffffffffffff19166020820180517bffffffffffffffffffffffffffffffffffffffffffffffffffffffff8381831617835250505050610925565b505050565b6108858282604051602401610803929190610db9565b6040516020818303038152906040527f9710a9d0000000000000000000000000000000000000000000000000000000007bffffffffffffffffffffffffffffffffffffffffffffffffffffffff19166020820180517bffffffffffffffffffffffffffffffffffffffffffffffffffffffff8381831617835250505050610925565b5050565b610921828260405160240161089f929190610d44565b6040516020818303038152906040527f319af333000000000000000000000000000000000000000000000000000000007bffffffffffffffffffffffffffffffffffffffffffffffffffffffff19166020820180517bffffffffffffffffffffffffffffffffffffffffffffffffffffffff8381831617835250505050610925565b5050565b60008151905060006a636f6e736f6c652e6c6f679050602083016000808483855afa5050505050565b82805461095a9061102f565b90600052602060002090601f01602090048101928261097c57600085556109c3565b82601f1061099557805160ff19168380011785556109c3565b828001600101855582156109c3579182015b828111156109c25782518255916020019190600101906109a7565b5b5090506109d091906109d4565b5090565b5b808211156109ed5760008160009055506001016109d5565b5090565b6000610a046109ff84610eb9565b610e94565b905082815260208101848484011115610a1c57600080fd5b610a27848285610fed565b509392505050565b600081359050610a3e816112a3565b92915050565b600082601f830112610a5557600080fd5b8135610a658482602086016109f1565b91505092915050565b600060208284031215610a8057600080fd5b6000610a8e84828501610a2f565b91505092915050565b600060208284031215610aa957600080fd5b600082013567ffffffffffffffff811115610ac357600080fd5b610acf84828501610a44565b91505092915050565b6000610ae48383610c7d565b905092915050565b610af581610fb1565b82525050565b610b0481610fb1565b82525050565b6000610b1582610efa565b610b1f8185610f1d565b935083602082028501610b3185610eea565b8060005b85811015610b6d5784840389528151610b4e8582610ad8565b9450610b5983610f10565b925060208a01995050600181019050610b35565b50829750879550505050505092915050565b6000610b8a82610f05565b610b948185610f39565b9350610ba4818560208601610ffc565b610bad816111c8565b840191505092915050565b6000610bc382610f05565b610bcd8185610f4a565b9350610bdd818560208601610ffc565b610be6816111c8565b840191505092915050565b6000610bfe603483610f4a565b9150610c09826111d9565b604082019050919050565b6000610c21600f83610f4a565b9150610c2c82611228565b602082019050919050565b6000610c44602783610f4a565b9150610c4f82611251565b604082019050919050565b6000610c67600083610f2e565b9150610c72826112a0565b600082019050919050565b6000606083016000830151610c956000860182610aec565b5060208301518482036020860152610cad8282610b7f565b9150506040830151610cc26040860182610ccd565b508091505092915050565b610cd681610fe3565b82525050565b610ce581610fe3565b82525050565b6000610cf682610c5a565b9150819050919050565b60006020820190508181036000830152610d1a8184610b0a565b905092915050565b60006020820190508181036000830152610d3c8184610bb8565b905092915050565b60006040820190508181036000830152610d5e8185610bb8565b9050610d6d6020830184610afb565b9392505050565b60006060820190508181036000830152610d8e8186610bb8565b9050610d9d6020830185610afb565b8181036040830152610daf8184610bb8565b9050949350505050565b60006040820190508181036000830152610dd38185610bb8565b9050610de26020830184610cdc565b9392505050565b60006020820190508181036000830152610e0281610bf1565b9050919050565b60006020820190508181036000830152610e2281610c14565b9050919050565b60006020820190508181036000830152610e4281610c37565b9050919050565b6000602082019050610e5e6000830184610cdc565b92915050565b6000604082019050610e796000830185610cdc565b8181036020830152610e8b8184610bb8565b90509392505050565b6000610e9e610eaf565b9050610eaa8282611061565b919050565b6000604051905090565b600067ffffffffffffffff821115610ed457610ed3611199565b5b610edd826111c8565b9050602081019050919050565b6000819050602082019050919050565b600081519050919050565b600081519050919050565b6000602082019050919050565b600082825260208201905092915050565b600081905092915050565b600082825260208201905092915050565b600082825260208201905092915050565b6000610f6682610fe3565b9150610f7183610fe3565b9250827fffffffffffffffffffffffffffffffffffffffffffffffffffffffffffffffff03821115610fa657610fa561110c565b5b828201905092915050565b6000610fbc82610fc3565b9050919050565b600073ffffffffffffffffffffffffffffffffffffffff82169050919050565b6000819050919050565b82818337600083830152505050565b60005b8381101561101a578082015181840152602081019050610fff565b83811115611029576000848401525b50505050565b6000600282049050600182168061104757607f821691505b6020821081141561105b5761105a61116a565b5b50919050565b61106a826111c8565b810181811067ffffffffffffffff8211171561108957611088611199565b5b80604052505050565b600061109d82610fe3565b91507fffffffffffffffffffffffffffffffffffffffffffffffffffffffffffffffff8214156110d0576110cf61110c565b5b600182019050919050565b60006110e682610fe3565b91506110f183610fe3565b9250826111015761110061113b565b5b828206905092915050565b7f4e487b7100000000000000000000000000000000000000000000000000000000600052601160045260246000fd5b7f4e487b7100000000000000000000000000000000000000000000000000000000600052601260045260246000fd5b7f4e487b7100000000000000000000000000000000000000000000000000000000600052602260045260246000fd5b7f4e487b7100000000000000000000000000000000000000000000000000000000600052604160045260246000fd5b6000601f19601f8301169050919050565b7f547279696e6720746f207769746864726177206d6f7265206d6f6e657920746860008201527f616e2074686520636f6e7472616374206861732e000000000000000000000000602082015250565b7f57616974203330207365636f6e64730000000000000000000000000000000000600082015250565b7f4661696c656420746f207769746864726177206d6f6e65792066726f6d20636f60008201527f6e74726163742e00000000000000000000000000000000000000000000000000602082015250565b50565b6112ac81610fb1565b81146112b757600080fd5b5056fea264697066735822122045b0aa54097227f78c988bd47979a7cf74a22491b7d210d46dc77da97559b89864736f6c63430008040033",
  "linkReferences": {},
  "deployedLinkReferences": {}
}