{
  "_format": "hh-sol-artifact-1",
  "contractName": "WavePortal",
  "sourceName": "contracts/WavePortal.sol",
  "abi": [
    {
      "inputs": [],
      "stateMutability": "nonpayable",
      "type": "constructor"
    },
    {
      "inputs": [],
      "name": "getMyWaves",
      "outputs": [
        {
          "internalType": "uint256",
          "name": "",
          "type": "uint256"
        }
      ],
      "stateMutability": "view",
      "type": "function"
    },
    {
      "inputs": [],
      "name": "getTotalWaves",
      "outputs": [
        {
          "internalType": "uint256",
          "name": "",
          "type": "uint256"
        }
      ],
      "stateMutability": "view",
      "type": "function"
    },
    {
      "inputs": [],
      "name": "totalWaves",
      "outputs": [
        {
          "internalType": "uint256",
          "name": "",
          "type": "uint256"
        }
      ],
      "stateMutability": "view",
      "type": "function"
    },
    {
      "inputs": [],
      "name": "wave",
      "outputs": [],
      "stateMutability": "nonpayable",
      "type": "function"
    },
    {
      "inputs": [
        {
          "internalType": "address",
          "name": "",
          "type": "address"
        }
      ],
      "name": "waveMapping",
      "outputs": [
        {
          "internalType": "uint256",
          "name": "",
          "type": "uint256"
        }
      ],
      "stateMutability": "view",
      "type": "function"
    }
  ],
  "bytecode": "0x608060405234801561001057600080fd5b506100596040518060400160405280601281526020017f68656c6c6f2c207765623320776f726c6421000000000000000000000000000081525061005e60201b6102921760201c565b6101e1565b6100fa81604051602401610072919061015f565b6040516020818303038152906040527f41304fac000000000000000000000000000000000000000000000000000000007bffffffffffffffffffffffffffffffffffffffffffffffffffffffff19166020820180517bffffffffffffffffffffffffffffffffffffffffffffffffffffffff83818316178352505050506100fd60201b60201c565b50565b60008151905060006a636f6e736f6c652e6c6f679050602083016000808483855afa5050505050565b600061013182610181565b61013b818561018c565b935061014b81856020860161019d565b610154816101d0565b840191505092915050565b600060208201905081810360008301526101798184610126565b905092915050565b600081519050919050565b600082825260208201905092915050565b60005b838110156101bb5780820151818401526020810190506101a0565b838111156101ca576000848401525b50505050565b6000601f19601f8301169050919050565b6107fc806101f06000396000f3fe608060405234801561001057600080fd5b50600436106100575760003560e01c8063291bcab31461005c5780636383fec01461007a5780636fe15b44146100aa5780639a2cdc08146100b4578063f3f2d91b146100d2575b600080fd5b6100646100f0565b6040516100719190610680565b60405180910390f35b610094600480360381019061008f9190610540565b6100f6565b6040516100a19190610680565b60405180910390f35b6100b261010e565b005b6100bc6101bb565b6040516100c99190610680565b60405180910390f35b6100da610206565b6040516100e79190610680565b60405180910390f35b60005481565b60016020528060005260406000206000915090505481565b600160003373ffffffffffffffffffffffffffffffffffffffff1673ffffffffffffffffffffffffffffffffffffffff168152602001908152602001600020600081548092919061015e90610726565b919050555060008081548092919061017590610726565b91905055506101b96040518060400160405280600d81526020017f25732068617320776176656421000000000000000000000000000000000000008152503361032b565b565b60006101fe6040518060400160405280601681526020017f5765206861766520256420746f74616c207761766521000000000000000000008152506000546103c7565b600054905090565b600080600160003373ffffffffffffffffffffffffffffffffffffffff1673ffffffffffffffffffffffffffffffffffffffff16815260200190815260200160002054905061028b6040518060400160405280601d81526020017f5765206861766520256420746f74616c207761766520666f72202573210000008152508233610463565b8091505090565b610328816040516024016102a691906105c0565b6040516020818303038152906040527f41304fac000000000000000000000000000000000000000000000000000000007bffffffffffffffffffffffffffffffffffffffffffffffffffffffff19166020820180517bffffffffffffffffffffffffffffffffffffffffffffffffffffffff8381831617835250505050610502565b50565b6103c382826040516024016103419291906105e2565b6040516020818303038152906040527f319af333000000000000000000000000000000000000000000000000000000007bffffffffffffffffffffffffffffffffffffffffffffffffffffffff19166020820180517bffffffffffffffffffffffffffffffffffffffffffffffffffffffff8381831617835250505050610502565b5050565b61045f82826040516024016103dd929190610612565b6040516020818303038152906040527f9710a9d0000000000000000000000000000000000000000000000000000000007bffffffffffffffffffffffffffffffffffffffffffffffffffffffff19166020820180517bffffffffffffffffffffffffffffffffffffffffffffffffffffffff8381831617835250505050610502565b5050565b6104fd83838360405160240161047b93929190610642565b6040516020818303038152906040527fe3849f79000000000000000000000000000000000000000000000000000000007bffffffffffffffffffffffffffffffffffffffffffffffffffffffff19166020820180517bffffffffffffffffffffffffffffffffffffffffffffffffffffffff8381831617835250505050610502565b505050565b60008151905060006a636f6e736f6c652e6c6f679050602083016000808483855afa5050505050565b60008135905061053a816107af565b92915050565b60006020828403121561055257600080fd5b60006105608482850161052b565b91505092915050565b610572816106b7565b82525050565b60006105838261069b565b61058d81856106a6565b935061059d8185602086016106f3565b6105a68161079e565b840191505092915050565b6105ba816106e9565b82525050565b600060208201905081810360008301526105da8184610578565b905092915050565b600060408201905081810360008301526105fc8185610578565b905061060b6020830184610569565b9392505050565b6000604082019050818103600083015261062c8185610578565b905061063b60208301846105b1565b9392505050565b6000606082019050818103600083015261065c8186610578565b905061066b60208301856105b1565b6106786040830184610569565b949350505050565b600060208201905061069560008301846105b1565b92915050565b600081519050919050565b600082825260208201905092915050565b60006106c2826106c9565b9050919050565b600073ffffffffffffffffffffffffffffffffffffffff82169050919050565b6000819050919050565b60005b838110156107115780820151818401526020810190506106f6565b83811115610720576000848401525b50505050565b6000610731826106e9565b91507fffffffffffffffffffffffffffffffffffffffffffffffffffffffffffffffff8214156107645761076361076f565b5b600182019050919050565b7f4e487b7100000000000000000000000000000000000000000000000000000000600052601160045260246000fd5b6000601f19601f8301169050919050565b6107b8816106b7565b81146107c357600080fd5b5056fea2646970667358221220fbb0c6441e6c5f03af7c216873ffeb1a9b1ccab9ac53bf41a0263e42ba1615a964736f6c63430008040033",
  "linkReferences": {},
  "deployedLinkReferences": {}
}